:1000000019C02EC132C031C030C02FC02EC02DC08B
:100010002CC02BC02AC07DC128C027C026C025C047
:1000200031C123C022C021C020C0A5C11EC01DC037
:100030001CC01BC011241FBECFEFD4E0DEBFCDBF5C
:1000400011E0A0E0B1E0E8EBF6E002C005900D920F
:10005000A431B107D9F721E0A4E1B1E001C01D92BC
:10006000AE31B207E1F702D025C3CACFCFD0BAD1A3
:1000700018D0DAD0C8D1D4D109D0C4E1D1E0609190
:100080001C0170911D01888159D0F9CFF894EAE7DD
:10009000F0E0108287E280937C008FEC808378947C
:1000A00008955C9A5F9A589859985E98089582309E
:1000B000C9F0833069F1813009F03FC0A42FB0E06E
:1000C000A65FBE4FE62FF0E0E050FF4F6C918081BD
:1000D000BED0589A89EF90E00197F1F700C0000078
:1000E00058980895A42FB0E0A050BF4FE62FF0E03D
:1000F000E050FF4F6C918081AAD0599A5C9889EFAB
:1001000090E00197F1F700C0000059985C9A0895BB
:10011000A42FB0E0A050BF4FE62FF0E0E050FF4F1B
:100120006C91808194D05E9A5F9889EF90E00197FE
:10013000F1F700C000005E985F9A0895CF92DF92B9
:10014000EF92FF920F931F93CF93C82F80E090E020
:10015000B4D120E93EE34AEF5EE315D282D16B01D0
:100160007C019B013695279536952795ABE7B4E141
:1001700095D28C0116950795402F61E081E097DFBD
:1001800024E6209FC001219F900D11249601281B79
:10019000390BADECBCEC82D2AC0156954795569527
:1001A0004795569547951DECC19F112D1124169525
:1001B00016951695612F82E07ADF9601ADECBCECC6
:1001C0006DD29695879596958795969587959C017E
:1001D000220F331F880F991F880F991F880F991FAF
:1001E000820F931FA601481B590B110F812F880FF7
:1001F000880F180F6C2F611B83E059DFCF911F917F
:100200000F91FF90EF90DF90CF90089586E884B92A
:1002100081E387B91AB85298559A8AB180698AB928
:100220008AB183648AB90895449A45980895449898
:10023000449A4498089598E0882314F4409A01C0A1
:100240004098880F459A45989150B1F70895CF93FB
:10025000C82F862FF0DF8C2FEEDFE9DFCF910895D6
:100260001F920F920FB60F9211248F939F939BB101
:1002700080E289278BB99F918F910F900FBE0F90CD
:100280001F9018951F920F920FB60F9211242F9363
:100290003F934F935F936F937F938F939F93AF930E
:1002A000BF93EF93FF9386E086BD809118019091F4
:1002B000190101969093190180931801049770F029
:1002C0009ED0809114019091150101969093150193
:1002D0008093140110921901109218018091140159
:1002E00090911501CD9720F01092150110921401F4
:1002F000FF91EF91BF91AF919F918F917F916F91FE
:100300005F914F913F912F910F900FBE0F901F90D3
:1003100018951F920F920FB60F9211242F938F935F
:100320009F938DE790E0909389008093880084EFFD
:1003300091E09093870080938600809116019091C0
:1003400017010196893E23E0920728F49093170144
:100350008093160104C0109217011092160195B1F6
:1003600082E0892785B99F918F912F910F900FBEC1
:100370000F901F9018951F920F920FB60F92112495
:100380002F933F938F939F93EF93FF9380917800E8
:10039000829586958695837090E090931D01809359
:1003A0001C012091790030E0220F331F220F331FF0
:1003B00030931B0120931A01820F931F90931D010C
:1003C00080931C01EAE7F0E0808180648083FF91E4
:1003D000EF919F918F913F912F910F900FBE0F90B2
:1003E0001F901895F894E9E6F0E080818E7F808375
:1003F000808182608083E89AE09A7894089585B13C
:10040000805885B90895F894EEE6F0E08081816027
:10041000808385B5856085BD86E086BD7894089526
:10042000F894E1E8F0E0808181608083A0E8B0E0AA
:100430008C9182688C93808180618083EFE6F0E00C
:100440008081826080838DE790E090938900809323
:10045000880084EF91E090938700809386007894E1
:10046000089570D088F09F5790F0B92F9927B75111
:10047000A0F0D1F0660F771F881F991F1AF0BA9568
:10048000C9F712C0B13081F077D0B1E0089574C0DF
:10049000672F782F8827B85F39F0B93FCCF386955E
:1004A00077956795B395D9F73EF4909580957095BB
:1004B00061957F4F8F4F9F4F0895E89409C097FB38
:1004C0003EF490958095709561957F4F8F4F9F4F2B
:1004D0009923A9F0F92F96E9BB279395F69587956F
:1004E00077956795B795F111F8CFFAF4BB0F11F432
:1004F00060FF1BC06F5F7F4F8F4F9F4F16C08823D9
:1005000011F096E911C0772321F09EE8872F762F0E
:1005100005C0662371F096E8862F70E060E02AF04F
:100520009A95660F771F881FDAF7880F969587953B
:1005300097F9089557FD9058440F551F59F05F3FA4
:1005400071F04795880F97FB991F61F09F3F79F0F5
:1005500087950895121613061406551FF2CF469577
:10056000F1DF08C0161617061806991FF1CF8695F9
:100570007105610508940895E894BB2766277727DD
:10058000CB0197F908950BD078C069D028F06ED0D0
:1005900018F0952309F05AC05FC01124EECFCADFCE
:1005A000A0F3959FD1F3950F50E0551F629FF00186
:1005B000729FBB27F00DB11D639FAA27F00DB11DDF
:1005C000AA1F649F6627B00DA11D661F829F222768
:1005D000B00DA11D621F739FB00DA11D621F839FEF
:1005E000A00D611D221F749F3327A00D611D231FC5
:1005F000849F600D211D822F762F6A2F11249F5713
:1006000050408AF0E1F088234AF0EE0FFF1FBB1F35
:10061000661F771F881F91505040A9F79E3F5105D4
:1006200070F014C0AACF5F3FECF3983EDCF38695E0
:1006300077956795B795F795E7959F5FC1F7FE2B7F
:10064000880F911D9695879597F9089597F99F675B
:1006500080E870E060E008959FEF80EC089500244A
:100660000A941616170618060906089500240A9417
:1006700012161306140605060895092E0394000C9D
:1006800011F4882352F0BB0F40F4BF2B11F460FF2C
:1006900004C06F5F7F4F8F4F9F4F0895A29FB0019F
:1006A000B39FC001A39F01D0B29F700D811D112483
:0806B000911D0895F894FFCF9D
:1006B800C0F9A4B0999282F8809040792430191238
:0406C80002780010A4
:00000001FF
