:1000000019C02FC132C031C030C02FC02EC02DC08A
:100010002CC02BC02AC07EC197C127C026C025C0D6
:1000200032C123C022C021C020C0DEC11EC01DC0FD
:100030001CC01BC011241FBECFEFD4E0DEBFCDBF5C
:1000400012E0A0E0B1E0E0E5F7E002C005900D921B
:10005000A63AB107D9F722E0A6EAB2E001C01D92A4
:10006000A03BB207E1F702D071C3CACFD0D0F3D121
:1000700019D0DBD001D20DD22DD209D0C6EAD2E000
:100080006091AE027091AF02888159D0F9CFF89497
:10009000EAE7F0E0108287E280937C008FEC8083B7
:1000A000789408955C9A5F9A589859985E98089544
:1000B0008230C9F0833069F1813009F03FC0A42F4C
:1000C000B0E0A65FBE4FE62FF0E0E050FF4F6C912E
:1000D0008081BED0589A89EF90E00197F1F700C077
:1000E000000058980895A42FB0E0A050BF4FE62F0D
:1000F000F0E0E050FF4F6C918081AAD0599A5C9853
:1001000089EF90E00197F1F700C0000059985C9AE0
:100110000895A42FB0E0A050BF4FE62FF0E0E050CC
:10012000FF4F6C91808194D05E9A5F9889EF90E048
:100130000197F1F700C000005E985F9A0895CF9292
:10014000DF92EF92FF920F931F93CF93C82F80E01F
:1001500090E0FFD120E93EE34AEF5EE360D2CDD1EB
:100160006B017C019B013695279536952795ABE76A
:10017000B4E1E0D28C0116950795402F61E081E053
:1001800097DF24E6209FC001219F900D1124960146
:10019000281B390BADECBCECCDD2AC015695479584
:1001A00056954795569547951DECC19F112D1124E5
:1001B000169516951695612F82E07ADF9601ADECC3
:1001C000BCECB8D296958795969587959695879528
:1001D0009C01220F331F880F991F880F991F880FCA
:1001E000991F820F931FA601481B590B110F812FD6
:1001F000880F880F180F6C2F611B83E059DFCF9198
:100200001F910F91FF90EF90DF90CF90089586E8B7
:1002100084B981E387B91AB85298559A8AB180692E
:100220008AB98AB183648AB90895449A4598089531
:100230004498449A4498089598E0882314F4409A86
:1002400001C04098880F459A45989150B1F708959C
:10025000CF93C82F862FF0DF8C2FEEDFE9DFCF9111
:1002600008951F920F920FB60F9211248F939F93B0
:100270009BB180E289278BB99F918F910F900FBE20
:100280000F901F9018951F920F920FB60F92112486
:100290002F933F934F935F936F937F938F939F938E
:1002A000AF93BF93EF93FF9386E086BD8091AA0240
:1002B0009091AB0201969093AB028093AA020497AF
:1002C00070F0D6D08091A6029091A70201969093EB
:1002D000A7028093A6021092AB021092AA0280910C
:1002E000A6029091A702CD9720F01092A70210923B
:1002F000A602FF91EF91BF91AF919F918F917F9156
:100300006F915F914F913F912F910F900FBE0F9082
:100310001F9018951F920F920FB60F9211248F9372
:100320009F938DE790E0909389008093880084EFFD
:1003300091E090938700809386009F918F910F901A
:100340000FBE0F901F9018951F920F920FB60F922D
:1003500011248F939F93EF93FF9384EF91E09093F9
:10036000870080938600E091A802F091A902EE0F29
:10037000FF1FEC5EFE4F8081918190938B008093F4
:100380008A008091A40280FD14C08091A8029091FF
:10039000A90201969093A9028093A802FC01EE0F96
:1003A000FF1FEC5EFE4F8081918190938B008093C4
:1003B0008A008091A8029091A902883C910530F0B2
:1003C0001092A9021092A8021092A4028091A40295
:1003D0008F5F8093A402FF91EF919F918F910F9077
:1003E0000FBE0F901F9018951F920F920FB60F928D
:1003F00011242F933F938F939F93EF93FF938091BB
:100400007800829586958695837090E09093AF02F0
:100410008093AE022091790030E0220F331F220F2B
:10042000331F3093AD022093AC02820F931F909341
:10043000AF028093AE02EAE7F0E0808180648083BF
:10044000FF91EF919F918F913F912F910F900FBE50
:100450000F901F901895F894E9E6F0E080818E7F68
:100460008083808182608083E89AE09A78940895FE
:1004700085B1805885B90895F894EEE6F0E0808162
:100480008160808385B5856085BD86E086BD789472
:100490000895F894E1E8F0E0808181608083A0E82D
:1004A000B0E08C9182688C93808180618083EFE6DC
:1004B000F0E08081826080838DE790E090938900F6
:1004C0008093880084EF91E090938700809386006A
:1004D00078940895F894E0E8F0E080818062808369
:1004E000EFE6F0E08081846080838AEF90E0909373
:1004F0008B0080938A007894089570D088F09F577D
:1005000090F0B92F9927B751A0F0D1F0660F771F5F
:10051000881F991F1AF0BA95C9F712C0B13081F03F
:1005200077D0B1E0089574C0672F782F8827B85F1F
:1005300039F0B93FCCF3869577956795B395D9F7A0
:100540003EF490958095709561957F4F8F4F9F4FAA
:100550000895E89409C097FB3EF4909580957095B6
:1005600061957F4F8F4F9F4F9923A9F0F92F96E9FF
:10057000BB279395F695879577956795B795F11174
:10058000F8CFFAF4BB0F11F460FF1BC06F5F7F4F11
:100590008F4F9F4F16C0882311F096E911C0772323
:1005A00021F09EE8872F762F05C0662371F096E82C
:1005B000862F70E060E02AF09A95660F771F881FFB
:1005C000DAF7880F9695879597F9089557FD905813
:1005D000440F551F59F05F3F71F04795880F97FB07
:1005E000991F61F09F3F79F08795089512161306C1
:1005F0001406551FF2CF4695F1DF08C016161706F0
:100600001806991FF1CF8695710561050894089524
:10061000E894BB2766277727CB0197F908950BD07D
:1006200078C069D028F06ED018F0952309F05AC030
:100630005FC01124EECFCADFA0F3959FD1F3950FD1
:1006400050E0551F629FF001729FBB27F00DB11D56
:10065000639FAA27F00DB11DAA1F649F6627B00DE6
:10066000A11D661F829F2227B00DA11D621F739FCF
:10067000B00DA11D621F839FA00D611D221F749FDD
:100680003327A00D611D231F849F600D211D822F24
:10069000762F6A2F11249F5750408AF0E1F088236B
:1006A0004AF0EE0FFF1FBB1F661F771F881F915078
:1006B0005040A9F79E3F510570F014C0AACF5F3F8C
:1006C000ECF3983EDCF3869577956795B795F795AB
:1006D000E7959F5FC1F7FE2B880F911D9695879533
:1006E00097F9089597F99F6780E870E060E00895B2
:1006F0009FEF80EC089500240A941616170618063A
:100700000906089500240A94121613061406050615
:100710000895092E0394000C11F4882352F0BB0FA6
:1007200040F4BF2B11F460FF04C06F5F7F4F8F4F09
:100730009F4F0895A29FB001B39FC001A39F01D016
:10074000B29F700D811D1124911D0895F894FFCF63
:10075000C0F9A4B0999282F880904079243019129F
:1007600002780010FA00010108010F0116011D01B5
:1007700024012B01310138013F0146014C01530195
:100780005901600166016C01720178017E018301EB
:1007900089018E01940199019E01A201A701AB017B
:1007A000B001B401B701BB01BF01C201C501C8015D
:1007B000CB01CD01CF01D201D301D501D701D801A1
:1007C000D901DA01DA01DA01DB01DA01DA01DA0151
:1007D000D901D801D701D501D301D201CF01CD0173
:1007E000CB01C801C501C201BF01BB01B701B40102
:1007F000B001AB01A701A2019E01990194018E01F4
:10080000890183017E01780172016C01660160013A
:10081000590153014C0146013F01380131012B01BF
:1008200024011D0116010F0108010101FA00F20067
:10083000EB00E400DD00D600CF00C800C200BB0022
:10084000B400AD00A700A0009A0093008D008700BF
:1008500081007B00750070006A0065005F005A002F
:10086000550051004C00480043003F003C00380058
:10087000340031002E002B00280026002400210027
:1008800020001E001C001B001A001900190019008E
:1008900019001900190019001A001B001C001E0085
:1008A000200021002400260028002B002E0031000B
:1008B000340038003C003F00430048004C00510029
:1008C00055005A005F0065006A00700075007B00EB
:1008D000810087008D0093009A00A000A700AD0062
:1008E000B400BB00C200C800CF00D600DD00E400A9
:0608F000EB00F200010024
:00000001FF
