S014000047636354696D657244656D6F2E737265637D
S113000019C033C032C031C030C02FC02EC02DC083
S11300102CC02BC02AC08AC028C027C026C025C037
S113002053C023C022C021C020C01FC01EC01DC099
S11300301CC01BC011241FBECFEFD4E0DEBFCDBF58
S113004011E0A0E0B1E0E8E8F2E002C005900D9212
S1130050AA30B107D9F721E0AAE0B1E001C01D92AE
S1130060A231B207E1F702D00DC1CACFB9D090D006
S113007086E084B9CDD0D9D040910A0150910B01CA
S11300809A01ADECBCECF2D0BC01769567957695FF
S1130090679576956795609311019B01220F331F35
S11300A0CB01880F991F880F991F880F991F820F02
S11300B0931F481B590B4093100181E06ED060914F
S11300C0100182E06AD0D8CF1F920F920FB60F9220
S11300D011248F939F9386E086BD80910E019091A9
S11300E00F01019690930F0180930E01049768F01D
S11300F080910A0190910B01019690930B018093DA
S11301000A0110920F0110920E0180910A01909140
S11301100B01CD9720F010920B0110920A019F91D0
S11301208F910F900FBE0F901F9018951F920F92F2
S11301300FB60F9211242F938F939F938DE790E026
S1130140909389008093880084EF91E090938700D6
S11301508093860080910C0190910D010196893E57
S113016023E0920728F490930D0180930C0104C0BE
S113017010920D0110920C0195B182E0892785B986
S11301809F918F912F910F900FBE0F901F901895F4
S113019080E98AB95C9A5F980895813019F08230B9
S11301A081F00895E62FF0E0E050FF4F80812DD0DC
S11301B05C9889EF90E00197F1F700C000005C9A29
S11301C00895E62FF0E0E050FF4F80811ED05F9845
S11301D089EF90E00197F1F700C000005F9A08955D
S11301E081E387B9449A459808954498449A449879
S11301F0089598E0882314F4409A01C04098880F29
S1130200459A45989150B1F70895F3DFEEDF0895CC
S1130210F894EEE6F0E080818160808385B58560A6
S113022085BD86E086BD78940895F894E1E8F0E011
S1130230808181608083A0E8B0E08C9182688C9397
S1130240808180618083EFE6F0E08081826080833A
S11302508DE790E0909389008093880084EF91E08B
S1130260909387008093860078940895A29FB001AC
S1130270B39FC001A39F01D0B29F700D811D1124B3
S10B0280911D0895F894FFCFCD
S10D0288C0F9A4B0999282F88090A6
S9030000FC
