:1000000019C033C032C031C030C02FC02EC02DC087
:100010002CC02BC02AC029C028C027C026C025C09C
:1000200024C023C022C021C020C02BC01EC01DC0C0
:100030001CC01BC011241FBECFEFD4E0DEBFCDBF5C
:1000400011E0A0E0B1E0EAEAF4E002C005900D9210
:10005000A431B107D9F721E0A4E1B1E001C01D92BC
:10006000A831B207E1F702D01EC2CACF4CD0DAD015
:100070003FD0F89480911601909117017DD078942B
:10008000F8CF1F920F920FB60F9211242F933F9328
:100090008F939F93EF93FF9380917800829586953D
:1000A0008695837090E090931701809316012091BC
:1000B000790030E0220F331F220F331F30931501D8
:1000C00020931401820F931F9093170180931601C0
:1000D000EAE7F0E0808180648083FF91EF919F9157
:1000E0008F913F912F910F900FBE0F901F901895F9
:1000F000F894EAE7F0E0108287E280937C008FECCE
:1001000080837894089580EE8AB95F985E985D98B0
:100110000895833099F0843001F1823061F5E62F43
:10012000F0E0E65FFE4F808192D05F9A89EF90E029
:100130000197F1F700C000005F980895E62FF0E006
:10014000E050FF4F808183D05E9A89EF90E0019765
:10015000F1F700C000005E980895E62FF0E0E0504F
:10016000FF4F808174D05D9A89EF90E00197F1F79D
:1001700000C000005D980895CF92DF92EF92FF9249
:10018000CF93DF93BC0180E090E090D020E93EE384
:100190004AEF5EE3F1D05ED06B017C019B013695A6
:1001A000279536952795ABE7B4E171D1EC01D6954B
:1001B000C7956C2F82E0ADDF24E62C9FC0012D9FF8
:1001C000900D11249601281B390BADECBCEC5FD1CE
:1001D000BC0176956795769567957695679583E0EA
:1001E00098DF9601ADECBCEC52D19695879596952B
:1001F0008795969587959C01220F331F880F991F2D
:10020000880F991F880F991F820F931FB601681BD3
:10021000790B84E07EDFDF91CF91FF90EF90DF904C
:10022000CF90089581E387B9449A459808954498FA
:10023000449A4498089598E0882314F4409A01C0A1
:100240004098880F459A45989150B1F70895F3DF8B
:10025000EEDF089570D088F09F5790F0B92F99275E
:10026000B751A0F0D1F0660F771F881F991F1AF0C1
:10027000BA95C9F712C0B13081F077D0B1E00895D6
:1002800074C0672F782F8827B85F39F0B93FCCF357
:10029000869577956795B395D9F73EF490958095B7
:1002A000709561957F4F8F4F9F4F0895E89409C0D7
:1002B00097FB3EF490958095709561957F4F8F4F99
:1002C0009F4F9923A9F0F92F96E9BB279395F695AF
:1002D000879577956795B795F111F8CFFAF4BB0F2D
:1002E00011F460FF1BC06F5F7F4F8F4F9F4F16C091
:1002F000882311F096E911C0772321F09EE8872F1B
:10030000762F05C0662371F096E8862F70E060E0D6
:100310002AF09A95660F771F881FDAF7880F96954F
:10032000879597F9089557FD9058440F551F59F038
:100330005F3F71F04795880F97FB991F61F09F3FD2
:1003400079F087950895121613061406551FF2CFFB
:100350004695F1DF08C0161617061806991FF1CF4B
:1003600086957105610508940895E894BB27662772
:100370007727CB0197F908950BD078C069D028F082
:100380006ED018F0952309F05AC05FC01124EECF4B
:10039000CADFA0F3959FD1F3950F50E0551F629FE0
:1003A000F001729FBB27F00DB11D639FAA27F00DCE
:1003B000B11DAA1F649F6627B00DA11D661F829FF5
:1003C0002227B00DA11D621F739FB00DA11D621FDA
:1003D000839FA00D611D221F749F3327A00D611DF7
:1003E000231F849F600D211D822F762F6A2F1124D9
:1003F0009F5750408AF0E1F088234AF0EE0FFF1F2C
:10040000BB1F661F771F881F91505040A9F79E3F62
:10041000510570F014C0AACF5F3FECF3983EDCF3B7
:10042000869577956795B795F795E7959F5FC1F79F
:10043000FE2B880F911D9695879597F9089597F94A
:100440009F6780E870E060E008959FEF80EC08957A
:1004500000240A94161617061806090608950024A3
:100460000A9412161306140605060895092E03941D
:10047000000C11F4882352F0BB0F40F4BF2B11F491
:1004800060FF04C06F5F7F4F8F4F9F4F0895A29F03
:10049000B001B39FC001A39F01D0B29F700D811D19
:0A04A0001124911D0895F894FFCF78
:1004AA00C0F9A4B0999282F8809040792430191248
:0404BA0002780010B4
:00000001FF
