:1000000019C02FC01FC01EC01DC01CC01BC01AC0FD
:1000100019C018C017C016C015C014C013C012C034
:1000200011C010C00FC00EC00DC00CC00BC00AC064
:1000300009C008C011241FBECFEFD4E0DEBFCDBF82
:1000400002D03EC0DDCF1FD025D036D030D02FE338
:100050008DE093E0215080409040E1F700C0000027
:10006000F4CF1F920F920FB60F9211248F939F938C
:100070009BB180E289278BB99F918F910F900FBE22
:100080000F901F90189580EC84B981E68AB980E6BC
:100090008BB90895F894E9E6F0E080818E7F808343
:1000A000808182608083E89AE09A7894089595B17F
:1000B00080E4892785B9089585B1805885B9089568
:0400C000F894FFCFE2
:00000001FF
