S01300004763634770696F44656D6F2E73726563F0
S113000019C052C027C026C025C024C023C022C0A6
S113001021C020C01FC01EC01DC01CC01BC01AC0F0
S113002019C018C017C016C015C014C013C012C020
S113003011C010C011241FBECFEFD4E0DEBFCDBF6E
S113004021E0A0E0B1E001C01D92A030B207E1F7C9
S113005002D03CC0D5CF80EC84B981E68AB980E671
S11300608BB9F894E9E6F0E080818E7F808380810B
S113007082608083E89AE09A78942E9A2F982FE3EE
S11300808DE093E0215080409040E1F700C00000F3
S11300902E982F9A2FE38DE093E0215080409040DA
S11300A0E1F700C00000E9CF1F920F920FB60F9244
S11300B011248F939F939BB180E289278BB99F91E1
S11300C08F910F900FBE0F901F901895F894FFCF4B
S9030000FC
